:020000040800F2
:1000000000040020D1110008E1120008E1120008EC
:10001000E1120008E1120008E1120008E1120008F4
:10002000E1120008E1120008E112000811130008B3
:10003000E1120008E1120008E1120008E1130008D3
:10004000E112000801300008E1120008E112000886
:10005000E1120008E1120008212E0008512E0008CC
:10006000812E0008B12E0008E12E0008812700082B
:10007000B1270008E12700081128000841280008DE
:1000800071280008A1280008E1120008E112000808
:10009000E1120008E1120008E1120008112F000827
:1000A000E1120008C13A0008E1120008E11200085C
:1000B000013B0008E112000881610008413400089A
:1000C00051350008E1120008E1120008E1120008B1
:1000D000E1120008F13D0008113E0008313E000821
:1000E000812F00083130000861300008E11200085B
:1000F000E1120008E1120008E1120008E112000814
:10010000E1120008E1120008413B0008E11200087A
:10011000E1120008E1120008E1120008E1120008F3
:10012000D1280008012900083129000861290008A8
:1001300010B502F0FDF8332401F0E2F904F088FE76
:1001400004F00EFE05E0013C6420A4B201F038FC8E
:100150001CB106F0FDF80028F5D0002404F090FA58
:100160003CB1237F0E2B0CD0322001F029FC002C57
:10017000F7D140224FF40B61044804F089FA044699
:10018000F2E7204601F08CFC0024EDE7B0B7000850
:1001900081F0004102E000BF83F0004330B54FEA38
:1001A00041044FEA430594EA050F08BF90EA020FA5
:1001B0001FBF54EA000C55EA020C7FEA645C7FEA38
:1001C000655C00F0E2804FEA5454D4EB5555B8BF5B
:1001D0006D420CDD2C4480EA020281EA030382EACC
:1001E000000083EA010180EA020281EA0303362D5E
:1001F00088BF30BD11F0004F4FEA01314FF4801C31
:100200004CEA113102D0404261EB410113F0004F42
:100210004FEA03334CEA133302D0524263EB4303F9
:1002200094EA050F00F0A780A4F10104D5F1200E97
:100230000DDB02FA0EFC22FA05F2801841F10001F2
:1002400003FA0EF2801843FA05F359410EE0A5F1C6
:1002500020050EF1200E012A03FA0EFC28BF4CF0F7
:10026000020C43FA05F3C01851EBE37101F00045AD
:1002700007D54FF0000EDCF1000C7EEB00006EEBBA
:100280000101B1F5801F1BD3B1F5001F0CD3490844
:100290005FEA30004FEA3C0C04F101044FEA44529B
:1002A00012F5800F80F09A80BCF1004F08BF5FEA22
:1002B000500C50F1000041EB045141EA050130BD02
:1002C0005FEA4C0C404141EB010111F4801FA4F1A5
:1002D0000104E9D191F0000F04BF01460020B1FAFA
:1002E00081F308BF2033A3F10B03B3F120020CDA32
:1002F0000C3208DD02F1140CC2F10C0201FA0CF010
:1003000021FA02F10CE002F11402D8BFC2F1200C74
:1003100001FA02F120FA0CFCDCBF41EA0C0190402A
:10032000E41AA2BF01EB0451294330BD6FEA040473
:100330001F3C1CDA0C340EDC04F11404C4F120025E
:1003400020FA04F001FA02F340EA030021FA04F370
:1003500045EA030130BDC4F10C04C4F1200220FAC7
:1003600002F001FA04F340EA0300294630BD21FA05
:1003700004F0294630BD94F0000F83F4801306BFCB
:1003800081F480110134013D4EE77FEA645C18BFBF
:100390007FEA655C29D094EA050F08BF90EA020F56
:1003A00005D054EA000C04BF1946104630BD91EA4E
:1003B000030F1EBF0021002030BD5FEA545C05D151
:1003C0004000494128BF41F0004130BD14F5800490
:1003D0003CBF01F5801130BD01F0004545F0FE4104
:1003E00041F470014FF0000030BD7FEA645C1ABF39
:1003F000194610467FEA655C1CBF0B46024650EA70
:10040000013406BF52EA033591EA030F41F400219B
:1004100030BD00BF90F0000F04BF0021704730B521
:100420004FF4806404F132044FF000054FF00001F6
:1004300050E700BF90F0000F04BF0021704730B5B7
:100440004FF4806404F1320410F0004548BF40428C
:100450004FF000013EE700BF42004FEAE2014FEAE1
:1004600031014FEA02701FBF12F07F4393F07F4FBC
:1004700081F06051704792F0000F14BF93F07F4FEE
:10048000704730B54FF4607401F0004521F0004131
:1004900020E700BF50EA010208BF704730B54FF0B7
:1004A00000050AE050EA010208BF704730B511F0BC
:1004B000004502D5404261EB41014FF4806404F1F4
:1004C00032045FEA915C3FF4DCAE4FF003025FEA76
:1004D000DC0C18BF03325FEADC0C18BF033202EBFE
:1004E000DC02C2F1200300FA03FC20FA02F001FA58
:1004F00003FE40EA0E0021FA02F11444C1E600BFF7
:1005000070B54FF0FF0C4CF4E06C1CEA11541DBFA9
:100510001CEA135594EA0C0F95EA0C0F00F0DEF874
:100520002C4481EA030621EA4C5123EA4C5350EA59
:10053000013518BF52EA033541F4801143F48013AA
:1005400038D0A0FB02CE4FF00005E1FB02E506F03B
:100550000042E0FB03E54FF00006E1FB03569CF090
:10056000000F18BF4EF0010EA4F1FF04B6F5007F96
:1005700064F5407404D25FEA4E0E6D4146EB060608
:1005800042EAC62141EA55514FEAC52040EA5E5091
:100590004FEACE2EB4F1FD0C88BFBCF5E06F1ED83B
:1005A000BEF1004F08BF5FEA500E50F1000041EB72
:1005B000045170BD06F0004646EA010140EA02001F
:1005C00081EA0301B4EB5C04C2BFD4EB0C0541EA41
:1005D000045170BD41F480114FF0000E013C00F356
:1005E000AB8014F1360FDEBF002001F0004170BD7A
:1005F000C4F10004203C35DA0C341BDC04F1140493
:10060000C4F1200500FA05F320FA04F001FA05F21E
:1006100040EA020001F0004221F0004110EBD370EB
:1006200021FA04F642EB06015EEA430E08BF20EA17
:10063000D37070BDC4F10C04C4F1200500FA04F3BA
:1006400020FA05F001FA04F240EA020001F000414C
:1006500010EBD37041F100015EEA430E08BF20EABF
:10066000D37070BDC4F1200500FA05F24EEA020E07
:1006700020FA04F301FA05F243EA020321FA04F036
:1006800001F0004121FA04F220EA020000EBD370ED
:100690005EEA430E08BF20EAD37070BD94F0000FED
:1006A0000FD101F00046400041EB010111F4801F21
:1006B00008BF013CF7D041EA060195F0000F18BFD2
:1006C000704703F00046520043EB030313F4801F0E
:1006D00008BF013DF7D043EA0603704794EA0C0FC8
:1006E0000CEA135518BF95EA0C0F0CD050EA4106DE
:1006F00018BF52EA4306D1D181EA030101F000415B
:100700004FF0000070BD50EA410606BF1046194682
:1007100052EA430619D094EA0C0F02D150EA01368E
:1007200013D195EA0C0F05D152EA03361CBF1046CF
:1007300019460AD181EA030101F0004141F0FE416E
:1007400041F470014FF0000070BD41F0FE4141F4F2
:10075000780170BD70B54FF0FF0C4CF4E06C1CEAF2
:1007600011541DBF1CEA135594EA0C0F95EA0C0FA7
:1007700000F0A7F8A4EB050481EA030E52EA033562
:100780004FEA013100F088804FEA03334FF0805583
:1007900045EA131343EA12634FEA022245EA1115B0
:1007A00045EA10654FEA00260EF000419D4208BF61
:1007B000964244F1FD0404F5407402D25B084FEA0E
:1007C0003202B61A65EB03055B084FEA32024FF4BA
:1007D00080104FF4002CB6EB020E75EB030E22BF17
:1007E000B61A754640EA0C005B084FEA3202B6EBD7
:1007F000020E75EB030E22BFB61A754640EA5C0086
:100800005B084FEA3202B6EB020E75EB030E22BF15
:10081000B61A754640EA9C005B084FEA3202B6EB16
:10082000020E75EB030E22BFB61A754640EADC00D5
:1008300055EA060E18D04FEA051545EA16754FEA37
:1008400006164FEAC30343EA52734FEAC2025FEA55
:100850001C1CC0D111F4801F0BD141EA00014FF0E4
:1008600000004FF0004CB6E711F4801F04BF0143B5
:100870000020B4F1FD0C88BFBCF5E06F3FF6AFAED1
:10088000B5EB030C04BFB6EB020C5FEA500C50F161
:10089000000041EB045170BD0EF0004E4EEA1131E4
:1008A00014EB5C04C2BFD4EB0C0541EA045170BDEB
:1008B00041F480114FF0000E013C90E645EA060E2F
:1008C0008DE60CEA135594EA0C0F08BF95EA0C0F5D
:1008D0003FF43BAF94EA0C0F0AD150EA01347FF4A5
:1008E00034AF95EA0C0F7FF425AF104619462CE77C
:1008F00095EA0C0F06D152EA03353FF4FDAE1046DF
:10090000194622E750EA410618BF52EA43067FF42F
:10091000C5AE50EA41047FF40DAF52EA43057FF4BF
:10092000EBAE12E700000000000000000000000035
:100930004FF0FF3C06E000BF4FF0010C02E000BFAB
:100940004FF0010C4DF804CD4FEA410C7FEA6C5C8E
:100950004FEA430C18BF7FEA6C5C1BD001B050EA31
:10096000410C0CBF52EA430C91EA030F02BF90EA1C
:10097000020F0020704710F1000F91EA030F58BFDB
:10098000994208BF90422CBFD8176FEAE37040F03D
:10099000010070474FEA410C7FEA6C5C02D150EADB
:1009A000013C07D14FEA430C7FEA6C5CD6D152EA96
:1009B000033CD3D05DF8040B704700BF844610465B
:1009C00062468C461946634600E000BF01B5FFF75A
:1009D000B7FF002848BF10F1000F01BD4DF808ED2A
:1009E000FFF7F4FF0CBF012000205DF808FB00BFFB
:1009F0004DF808EDFFF7EAFF34BF012000205DF855
:100A000008FB00BF4DF808EDFFF7E0FF94BF0120A1
:100A100000205DF808FB00BF4DF808EDFFF7CEFFA2
:100A200094BF012000205DF808FB00BF4DF808EDE1
:100A3000FFF7C4FF34BF012000205DF808FB00BFB2
:100A40004FEA410212F5001215D211D56FF47873F6
:100A5000B3EB625212D94FEAC12343F0004343EA99
:100A6000505311F0004F23FA02F018BF4042704774
:100A70004FF00000704750EA013005D111F00040FE
:100A800008BF6FF0004070474FF00000704700BF94
:100A90004A0011D212F5001211D20DD56FF47873FD
:100AA000B3EB62520ED44FEAC12343F0004343EA52
:100AB000505323FA02F070474FF00000704750EA9D
:100AC000013002D14FF0FF3070474FF00000704707
:100AD0004FEA4102B2F1E04324BFB3F5001CDCF160
:100AE000FE5C0DD901F0004C4FEAC0024CEA507098
:100AF000B2F1004F40EB830008BF20F001007047C7
:100B000011F0804F21D113F13872BCBF01F00040C9
:100B1000704741F480114FEA5252C2F11802C2F1FB
:100B2000200C10FA0CF320FA02F018BF40F001007C
:100B30004FEAC1234FEAD32303FA0CFC40EA0C002E
:100B400023FA02F34FEA4303CCE77FEA625307D16B
:100B500050EA01331EBF4FF0FE4040F440007047A2
:100B600001F0004040F0FE4040F40000704700BF3C
:100B700080F0004002E000BF81F0004142001FBF52
:100B80005FEA410392EA030F7FEA226C7FEA236C5B
:100B90006AD04FEA1262D2EB1363C1BFD218414050
:100BA00048404140B8BF5B42192B88BF704710F0E6
:100BB000004F40F4000020F07F4018BF404211F089
:100BC000004F41F4000121F07F4118BF494292EAF1
:100BD000030F3FD0A2F1010241FA03FC10EB0C001D
:100BE000C3F1200301FA03F100F0004302D54942AA
:100BF00060EB4000B0F5000F13D3B0F1807F06D357
:100C000040084FEA310102F10102FE2A51D2B1F14E
:100C1000004F40EBC25008BF20F0010040EA030043
:100C20007047490040EB000010F4000FA2F10102F0
:100C3000EDD1B0FA80FCACF1080CB2EB0C0200FA7A
:100C40000CF0AABF00EBC25052421843BCBFD040C8
:100C50001843704792F0000F81F4000106BF80F442
:100C600000000132013BB5E74FEA41037FEA226C05
:100C700018BF7FEA236C21D092EA030F04D092F0D0
:100C8000000F08BF0846704790EA010F1CBF002004
:100C9000704712F07F4F04D1400028BF40F0004061
:100CA000704712F100723CBF00F50000704700F081
:100CB000004343F0FE4040F4000070477FEA2262A8
:100CC00016BF08467FEA23630146420206BF5FEA79
:100CD000412390EA010F40F4800070474FF0000379
:100CE00004E000BF10F0004348BF40425FEA000C40
:100CF00008BF704743F0964301464FF000001CE0E8
:100D000050EA010208BF70474FF000030AE000BF3D
:100D100050EA010208BF704711F0004302D540427B
:100D200061EB41015FEA010C02BF844601460020ED
:100D300043F0B64308BFA3F18053A3F50003BCFA08
:100D40008CF2083AA3EBC25310DB01FA02FC6344B5
:100D500000FA02FCC2F12002BCF1004F20FA02F2BC
:100D600043EB020008BF20F00100704702F12002AF
:100D700001FA02FCC2F1200250EA4C0021FA02F210
:100D800043EB020008BF20EADC707047000000005F
:100D90004FF0FF0C1CEAD0521EBF1CEAD15392EA5E
:100DA0000C0F93EA0C0F6FD01A4480EA010C40023A
:100DB00018BF5FEA41211ED04FF0006343EA501094
:100DC00043EA5111A0FB01310CF00040B1F5000FD6
:100DD0003EBF490041EAD3715B0040EA010062F185
:100DE0007F02FD2A1DD8B3F1004F40EBC25008BF6F
:100DF00020F00100704790F0000F0CF0004C08BF8D
:100E000049024CEA502040EA51207F3AC2BFD2F159
:100E1000FF0340EAC250704740F400004FF0000367
:100E2000013A5DDC12F1190FDCBF00F000407047A1
:100E3000C2F10002410021FA02F1C2F1200200FADF
:100E400002FC5FEA310040F1000053EA4C0308BFA6
:100E500020EADC70704792F0000F00F0004C02BFF7
:100E6000400010F4000F013AF9D040EA0C0093F072
:100E7000000F01F0004C02BF490011F4000F013BCC
:100E8000F9D041EA0C018FE70CEAD15392EA0C0F3A
:100E900018BF93EA0C0F0AD030F0004C18BF31F0A5
:100EA000004CD8D180EA010000F00040704790F07B
:100EB000000F17BF90F0004F084691F0000F91F01F
:100EC000004F14D092EA0C0F01D142020FD193EAE5
:100ED0000C0F03D14B0218BF084608D180EA01006D
:100EE00000F0004040F0FE4040F40000704740F049
:100EF000FE4040F4400070474FF0FF0C1CEAD05217
:100F00001EBF1CEAD15392EA0C0F93EA0C0F69D072
:100F1000A2EB030280EA010C49024FEA402037D0DD
:100F20004FF0805343EA111143EA10130CF00040D4
:100F30008B4238BF5B0042F17D024FF4000C8B42C4
:100F400024BF5B1A40EA0C00B3EB510F24BFA3EBA4
:100F5000510340EA5C00B3EB910F24BFA3EB910374
:100F600040EA9C00B3EBD10F24BFA3EBD10340EACE
:100F7000DC001B0118BF5FEA1C1CE0D1FD2A3FF614
:100F800050AF8B4240EBC25008BF20F001007047C9
:100F90000CF0004C4CEA50207F32C2BFD2F1FF036C
:100FA00040EAC250704740F400004FF00003013A9D
:100FB00037E792F0000F00F0004C02BF400010F441
:100FC000000F013AF9D040EA0C0093F0000F01F055
:100FD000004C02BF490011F4000F013BF9D041EA77
:100FE0000C0195E70CEAD15392EA0C0F08D14202AA
:100FF0007FF47DAF93EA0C0F7FF470AF084676E77D
:1010000093EA0C0F04D14B023FF44CAF08466EE755
:1010100030F0004C18BF31F0004CCAD130F0004223
:101020007FF45CAF31F000437FF43CAF5FE700BF7B
:101030004FF0FF3C06E000BF4FF0010C02E000BFA4
:101040004FF0010C4DF804CD4FEA40024FEA410346
:101050007FEA226C18BF7FEA236C11D001B052EAFC
:10106000530C18BF90EA010F58BFB2EB030088BFC2
:10107000C81738BF6FEAE17018BF40F00100704731
:101080007FEA226C02D15FEA402C05D17FEA236C13
:10109000E4D15FEA412CE1D05DF8040B704700BF5A
:1010A000844608466146FFE70FB5FFF7C9FF0028F1
:1010B00048BF10F1000F0FBD4DF808EDFFF7F4FF2A
:1010C0000CBF012000205DF808FB00BF4DF808EDC3
:1010D000FFF7EAFF34BF012000205DF808FB00BFE6
:1010E0004DF808EDFFF7E0FF94BF012000205DF808
:1010F00008FB00BF4DF808EDFFF7D2FF94BF0120B9
:1011000000205DF808FB00BF4DF808EDFFF7C8FFB1
:1011100034BF012000205DF808FB00BF0000000084
:101120004FEA4002B2F1FE4F0FD34FF09E03B3EBF4
:1011300012620DD94FEA002343F0004310F0004F34
:1011400023FA02F018BF404270474FF0000070478A
:1011500012F1610F01D1420205D110F0004008BF29
:101160006FF0004070474FF0000070470000000033
:1011700042000ED2B2F1FE4F0BD34FF09E03B3EB01
:10118000126209D44FEA002343F0004323FA02F02D
:1011900070474FF00000704712F1610F01D1420219
:1011A00002D14FF0FF3070474FF00000704700BF92
:1011B000704700BF000000000000000000000000B9
:1011C000FEE700BF0000000000000000000000007B
:1011D00072B6324880F30988022383F31488BFF380
:1011E0006F8F2F492F4A91420CD2CC43224422F0D8
:1011F000030204320B460A444FF0553143F8041BF6
:101200009342FBD1284981420CD20B46274A4FF02A
:101210005530521A22F0030204320A4443F8040BF8
:101220009342FBD102F0ACFE214A224B9A420DD2EE
:10123000D043214918440B4620F0030004300844F1
:1012400053F8041B834242F8041BF9D11B491C4A82
:1012500091420BD2C843024422F0030204320B46EF
:101260000A44002143F8041B9A42FBD1154D164C49
:10127000FFF79EFFAC4204D254F8043B9847AC42BF
:10128000FAD3124D124CFEF753FFAC4204D254F87D
:10129000043B9847AC42FAD3FFF792FF00080020C6
:1012A000000000200004002000040020FF070020B0
:1012B00000080020780F002058B90008780F00209F
:1012C0009031002030010008300100083001000892
:1012D00030010008000000000000000000000000D5
:1012E000FEE700BF0000000000000000000000005A
:1012F00072B6FEE7000000000000000000000000E1
:1013000000F0B6FA00DF00BF00000000000000009F
:10131000EFF30983203383F30988002383F31188D3
:10132000704700BF00000000000000000000000047
:1013300008B5094A094B002199600720DA6010219D
:1013400000F0B6F820210A2000F0B2F8BDE808400D
:1013500080210B2000F0ACB80003FA0500ED00E09E
:10136000202383F31188174B5B6813F4006319D0B3
:10137000EFF30983A3F1200282F3098812494FF0A9
:1013800080708A6943F8040CD07F70B10868916856
:1013900082688A4294BF002201227AB10B4A43F844
:1013A000082C704783F31188704708689168826839
:1013B0008A4234BF00220122002AEFD1044A43F8B6
:1013C000082C704700ED00E0901000200113000889
:1013D00004130008000000000000000000000000EE
:1013E00008B5202383F3118800F0BAF8002383F3B3
:1013F0001188BDE80840FFF7B3BF00BF0000000040
:101400002DE9F04FC1F80CD0D0F80CD0BDE8F08F2A
:10141000002383F311882846A04700F019FB70478A
:1014200070B420F0030404F1604404F56144C20088
:10143000D4F8005302F018024309FF2696409B009F
:10144000914003F1604325EA060200F01F000125E8
:1014500005FA00F003F561431143C4F80013C3F823
:10146000800170BC186070470000000000000000A0
:1014700030B4420900F01F050C4C20F00303012199
:10148000A940203203F1604344F8221003F5614380
:10149000C000D3F8002300F01800FF2101FA00F08B
:1014A00022EA0000C3F8000330BC704700E100E00E
:1014B00020F0030303F1604303F56D4300F00300E4
:1014C00010B4C0009A69FF248440814022EA0400DD
:1014D0000843986110BC7047000000000000000045
:1014E000024B034A9B699A61FEE700BF90100020FF
:1014F00040A90008000000000000000000000000FB
:1015000000B583B0FFF714FF00F0DAF800F058F8E8
:1015100000F0F6FD00F03CFE40210C4800F0B8F968
:101520000B49012288610277002383F3118862B698
:1015300018468B69074999610090074BC0210748FD
:1015400000F0FEF903B05DF804FB00BF780F002047
:101550009010002050A90008E1140008C00F0020DE
:1015600070B5134B9B69DA7F0AB1013ADA771A6AD0
:10157000104C01321A62E36822680133A242E36030
:1015800014D09668013E966086B91168D5682160CE
:10159000D66000234C6083F311881069A84720238C
:1015A00083F3118822689368002BEED070BD00BFD2
:1015B00090100020801000200000000000000000BB
:1015C000044B4FF0FF3100225B601B609960DA60D2
:1015D000704700BF801000200000000000000000E5
:1015E00010B40C4C03612368C2609A68914204D91C
:1015F0001B68891A9A688A42FAD35A68A342036020
:10160000426058601060816002D09A68511A9960F7
:1016100010BC704780100020000000000000000097
:10162000074A0368934203D0996882680A449A6023
:1016300042680021136003685A60C160704700BFB0
:1016400080100020000000000000000000000000EA
:1016500010B4202383F31188037F0D2B11D8DFE80A
:1016600003F025101007100B101010101010100BA5
:10167000426A93680133936090E80C001A60026834
:1016800053604FF0FF34002381680B4A44620377B4
:10169000126893688B42FBD251680023026041605C
:1016A0005060086083F3118810BC7047002383F3F7
:1016B000118810BC704700BF90100020000000008F
:1016C000034B00225B601B605B611B619A6070478B
:1016D000901000200000000000000000000000004A
:1016E00010B4044600228168064B02771B689A6892
:1016F0008A42FBD25A682046236062605C601460B4
:1017000010BC704790100020000000000000000096
:10171000084B30B499691A6814240877CC77146898
:101720000125636015771C60104630BC9A61FFF795
:1017300067BE00BF90100020000000000000000005
:1017400030B54B1C87B012D005460C4C01A8A369DC
:101750000B4AFFF745FF2846FFF7DAFF049B13B15A
:1017600001A8FFF75DFFA369586A07B030BDFFF716
:10177000CFFF024CA369586A07B030BD901000201B
:1017800051160008000000000000000000000000EA
:10179000144BF0B49D69416204468168A868814297
:1017A0000CD8002222771B689A689142FBD95A68AC
:1017B000236062605C601460F0BC70471A460021D0
:1017C0002977126891688842FBD95668012785E815
:1017D0004400556035602777294620469C61F0BC5F
:1017E000FFF70EBE90100020000000000000000077
:1017F0000E4AF0B410689469056801216A601427E4
:1018000001770026A168034615609061E777267787
:1018100000E01B689A688A42FBD25A68214623601E
:1018200062605C601460F0BCFFF7EABD90100020BD
:101830000D4A70B410689469056801216A60002639
:101840000177A168034615609061267700E01B6868
:101850009A688A42FBD85A682146236062605C60BD
:10186000146070BCFFF7CCBD901000200000000099
:10187000034B9B69DB7F0BB1FFF7DABFFFF7B8BF04
:101880009010002000000000000000000000000098
:10189000F0B50F4C00226569016481600461456107
:1018A00000F12C0160614FF0020E1427012600F1B7
:1018B000280480F81CE0C77786774277C26382638A
:1018C00002628261286184620163C162F0BD00BF6F
:1018D0009010002000000000000000000000000048
:1018E0002439F0B54618C660114D4350059B114F81
:1018F00069697360022337624FF0140E82600264DC
:10190000037700F12C020023012700F1280605616E
:10191000416180F81FE0877743776861C363836321
:1019200003628361086186620263C262F0BD00BF28
:1019300090100020111400080000000000000000BA
:10194000F8B51F460446202383F31188243945182F
:10195000164BC560164E475006995F692E62696046
:101960004FF0020C0025826002644FF0140E00F16B
:101970002C0200F12806012103618177476180F87C
:101980001CC0586180F81FE04577C5638563056218
:1019900085612946386186620263C262FFF7F8FEFC
:1019A0002B4683F311882046F8BD00BF901000201D
:1019B00011140008000000000000000000000000FA
:1019C00008B50146202383F311880620FFF7B8FEEF
:1019D000002383F3118808BD000000000000000010
:1019E00008B5202383F31188054BD968411A02D02A
:1019F0000620FFF7A5FE002383F3118808BD00BF72
:101A00008010002000000000000000000000000026
:101A100038B50E4B9C692546606255F8280FA842E0
:101A200006D00368A362FFF75BFEA06AA842F8D164
:101A3000637F9B0704D1226963691A61226953613C
:101A40000E20BDE83840FFF763BE00BF90100020B5
:101A5000202383F31188FFF7DBBF00BF00000000E5
:101A600038B50446202383F31188037F0E2B07D05B
:101A7000084B826A9B6907201A60A362FFF748FE41
:101A8000656A002383F31188204600F009F8284690
:101A900038BD00BF901000200000000000000000D2
:101AA0000146202383F31188827F0023013AD2B2BA
:101AB000827783F3118812B9037F0E2B00D0704711
:101AC000437F03F00303012B02D0022B07D07047A2
:101AD000026943691A610269536100F0A9BB026996
:101AE00043691A610269406C536100F011BC00BF88
:101AF000F0B583B016461F460D4600F059FB98B16D
:101B0000202383F31188089B3246009329463B46E5
:101B1000FFF7E6FE0123437700210446FFF738FE76
:101B2000002383F31188204603B0F0BD00000000BD
:101B3000202383F31188044A00231069827F013235
:101B4000827783F311887047901000200000000016
:101B500010B5202383F31188074B04699C4217BFFB
:101B6000A37F00240133A377002383F31188FFF7B9
:101B700097FF204610BD00BF90100020000000001D
:101B80000023406000608360704700BF00000000D9
:101B9000304B826870B59C69002A55D0A168936863
:101BA0000546994206D9137F9160042B33D0052B4B
:101BB0001DD09BB12B4603E09968A268914202D3E5
:101BC0001B689D42F8D15A68236062605C601460B3
:101BD00065620420BDE87040FFF79ABD92E80A00F4
:101BE0001960104612685360FFF77AFDE2E792E849
:101BF0000900186010684360566A334602E098682E
:101C0000884202D31B689E42F9D159681360516023
:101C10005A600A60CEE792E80900186010684360D5
:101C2000566A334602E09868884202D31B689E4297
:101C3000F9D15968136051605A600A60B268A168AE
:101C400093688B42AFD3B5E7E36B8460C360E06316
:101C500070BD00BF901000200000000000000000D8
:101C600008B5202383F31188FFF792FF002383F345
:101C7000118808BD00000000000000000000000006
:101C8000174A38B59069202383F31188C46B2568FF
:101C9000E368A542C3631CD0016C4BB11A689A4239
:101CA00003D09268914238BF1146DB68002BF5D112
:101CB0002B68EA6B8160236028465C600021A56088
:101CC000E260EC63FFF764FD002383F31188204694
:101CD00038BD0023A360002383F31188204638BD5C
:101CE0009010002000000000000000000000000034
:101CF00030B4202383F31188064C0368A5690024BF
:101D00000B60016023464D608A60CC6083F31188CC
:101D100030BC704790100020000000000000000060
:101D2000202383F31188024602E0994207D01A4625
:101D300013689842F9D1002383F3118870470B6828
:101D40001360002383F31188704700BF0000000078
:101D500008B5836B027F1943082A81630AD0092AD8
:101D600000D008BD436A8B43FBD1FFF7B9FC0023C9
:101D7000436208BD436A1942F7D108BD0000000064
:101D800070B50468A0420BD005460E46E368A16812
:101D90003343E3606068FFF7DBFF2468A542F5D1B9
:101DA00070BD00BF00000000000000000000000047
:101DB000134B70B59E69202383F31188B26B12EA2E
:101DC00000040FD121B90B4683F31188084670BD7A
:101DD000706205460820FFF7B3FC00280ADBB26BEF
:101DE00005EA020422EA0402B263002383F31188A5
:101DF000204670BD234683F31188204670BD00BF86
:101E00009010002000000000000000000000000012
:101E100069B10246074B10B49B690D205A625468A1
:101E200083E814005360236010BCFFF789BC4FF0B7
:101E3000FF307047901000200000000000000000FC
:101E400030B4029C00250A4485600462026140604F
:101E5000006041618161C160C36130BC704700BFF7
:101E600038B50446C368006800228442A2606361FA
:101E7000A3610AD06FF00105036823605C60FFF77F
:101E80002FFC45622068A042F6D138BD000000005A
:101E90008369426910B59A4283681DD00133541C8E
:101EA000836044611170426903699A420DD20268ED
:101EB00082420FD003461168104619604B60FFF74D
:101EC0000FFC00234362184610BD0268C3688242BB
:101ED0004361EFD1002010BD002BDFD06FF0030075
:101EE00010BD00BF00000000000000000000000066
:101EF00070B520230E46044683F31188C3693BB1B5
:101F0000984705E031462046FFF782FF002813DBA3
:101F1000A568002DF6D0A2692169531C8B42A361EC
:101F200005F1FF3528BFE368A560107828BFA361DD
:101F3000002383F3118870BD2B4683F3118870BD95
:101F40002DE9F0471E46044689469246D0F81C808B
:101F5000202383F311880027B8F1000F07D0204613
:101F6000C04704E031462046FFF752FFD0B9A568CC
:101F7000002DF7D0A369013D5A1CA261A5601B7812
:101F800009F8013B2369A2699A4224BFE368A3616F
:101F9000002383F311880137BA4506D0202383F349
:101FA0001188D9E72B4683F311883846BDE8F087BE
:101FB00030B4029C8D18056104624060006082604C
:101FC00041618161C160C36130BC704700000000A5
:101FD000F8B504460F461646202383F3118805E022
:101FE00031462046FFF714FF002817DBA568002DB7
:101FF000F6D06369013D5A1C6261A5601F702369B8
:1020000062699A4224BFE3686361E3690BB12046C9
:102010009847002383F311881846F8BD2B4683F3B5
:102020001188F8BD00000000000000000000000062
:1020300038B5826943699342836818D00569511C99
:10204000013383608161A94214780DD20268824213
:1020500008D003461168104619604B60FFF740FB3B
:1020600000234362204638BDC3688361EEE7002B3E
:10207000E4D06FF0020038BD000000000000000056
:102080002DE9F84F9A4604460E461746D0F81C90A4
:10209000202383F311884FF00008A56806F1010B97
:1020A0006A1E0DB36369A2605A1C626132781A70AD
:1020B000236962699A4224BFE3686361B9F1000F42
:1020C00001D02046C847002383F31188013F08F15F
:1020D000010812D0202383F311885E46A56806F11B
:1020E000010B6A1E002DDDD151462046FFF790FE00
:1020F0000028D2D02B4683F311884046BDE8F88FE4
:10210000054A064B0648074922F0070223F0070359
:1021100002600B60704700BF973100200000012073
:10212000B0100020AC1000200000000000000000F3
:1021300010B4202383F31188094C0A4B22681968D4
:10214000C31D23F00703891A8B429DBF9B18236090
:1021500010460020002383F3118810BC704700BF95
:10216000B0100020AC1000200000000000000000B3
:10217000024A034B10681B68C01A7047AC1000205D
:10218000B01000200000000000000000000000006F
:10219000044B0549002203F1100019609A60DA60CF
:1021A000FFF7EEBCB810002031210008000000004D
:1021B000F8B51E4E0731002818BF064606F110007C
:1021C00021F0070506F10804FFF74AFD03E0436824
:1021D0009D4211D9044620680028F8D1FFF750FD30
:1021E00033680BB305F108009847E8B10660456015
:1021F00000F108042046F8BD05F10802934208D218
:1022000003682360044644F8086BFFF739FD204655
:10221000F8BD6FF0070701687F1B3B4487188150AA
:102220007B6027604560EDE70024E3E7B8100020FD
:1022300070B5064650F8080CA6F1080400F1080530
:102240001030FFF70DFD2B46AB4204D0A34202D362
:102250001B68AB42FAD11A681AB1944201D31346F3
:10226000F2E746F8082C1C6056F8041C56F8085C87
:1022700001F10802A018A84209D0596801F108022A
:102280001A44944211D0BDE87040FFF7F9BC406891
:102290000144083146F8041CA25846F8082C596835
:1022A00001F108021A449442EDD156F8042C0A4474
:1022B00008325A6056F8082C1A60BDE87040FFF7E3
:1022C000DFBC00BF000000000000000000000000B4
:1022D00038B50E4C0D46002818BF044604F1100016
:1022E000FFF7BEFCA3686BB10022144658681B6858
:1022F00001340244002BF9D105B12A60FFF7C0FC7C
:10230000204638BD1A461C46F6E700BFB81000202C
:10231000202383F31188026800230A60016083F39D
:10232000118870470000000000000000000000005D
:1023300008B500F0CDFB00F003FA094800F068FF93
:1023400000F016F800F04CF800F07AF800F0B0F861
:1023500000F05EF900F0B4F9BDE8084001F018BEE5
:1023600050AA00080000000000000000000000006B
:1023700000F0B6BC000000000000000000000000FB
:1023800000230122027043608360C36003614361E4
:102390001830FFF7F5BB00BF000000000000000090
:1023A00010B52023044683F31188416000F0D0FC6F
:1023B00002232370002383F3118810BD0000000066
:1023C00038B51D46202383F31188032303708260F0
:1023D000C560016100F0E4FC002383F3118838BD7F
:1023E00000F086BE000000000000000000000000B9
:1023F0000122002302704360704700BF000000000C
:1024000010B52023044683F31188416000F0C8FE14
:1024100002232370002383F3118810BD0000000005
:1024200008B5202383F3118800F06AFE002383F3AC
:10243000118808BD0000000000000000000000003E
:1024400001F09EBB00000000000000000000000042
:102450000122002302704360704700BF00000000AB
:1024600010B52023044683F31188416001F0A8FBD6
:1024700002232370002383F3118810BD00000000A5
:1024800008B5202383F311880423037001F0F8FBBF
:10249000002383F3118808BD000000000000000045
:1024A0000423037001F0ECBB0000000000000000FA
:1024B00001F0C6B8000000000000000000000000AD
:1024C00001220023027043600C30FFF759BB00BFAC
:1024D00010B52023044683F31188416001F0C8F849
:1024E00002232370002383F3118810BD0000000035
:1024F00010B52023044683F3118801F069F9012304
:102500002370002383F3118810BD00BF000000007A
:10251000806870470000000000000000000000001C
:102520002DE9F04184B0984604460B9E0C9F202371
:1025300083F311880A9B4FF0030E00250093029746
:1025400001964346856080F800E001F069F9431C7C
:102550000CBF052302232370002383F3118804B0EA
:10256000BDE8F08100000000000000000000000055
:102570000C30FFF775BB00BF00000000000000003A
:10258000FFF77EBB0000000000000000000000001C
:102590000C30FFF7D5BC00BF0000000000000000B9
:1025A0000C304FF0FF33FFF7CBBC00BF0000000042
:1025B0003030FFF765BD00BF0000000000000000E4
:1025C00030304FF0FF33FFF75BBD00BF000000006D
:1025D0000C30FFF78DBC00BF0000000000000000C1
:1025E0000C304FF0FF31FFF783BC00BF000000004C
:1025F0003030FFF7EDBC00BF00000000000000001D
:1026000030304FF0FF32FFF7E3BC00BF00000000A6
:1026100001F01EBC000000000000000000000000EF
:1026200030B5044615460D4B83B040F8043B0122FB
:1026300000940B466060227204F1540104F10C0016
:102640004022FFF7FDFB00942B4604F1940104F1B6
:1026500030004022FFF7ACFC03B030BD70A9000889
:1026600010B52023044683F3118801F021FC0223D6
:102670002372002383F3118810BD00BF0000000007
:1026800038B5436904460D463BB1294604F10C00B8
:10269000FFF7FEFB00280BDB38BD04210844FFF7E1
:1026A0006FFB294604F10C00FFF7F2FB0028F3DA78
:1026B000201D8021BDE83840FFF762BB000000000C
:1026C00001F076B9000000000000000000000000EA
:1026D000002301220270436083600C30FFF750BA80
:1026E00010B52023044683F31188416001F080F97E
:1026F00002232370002383F3118810BD0000000023
:10270000014B5B6883607047001000E00000000030
:10271000084A0949526883680968D31AC2685B1A73
:102720009342836004D80269934238BF03617047C3
:10273000C3607047001000E0D810002000000000C7
:1027400010B50B4C86B000234FF0FF31094A2360CF
:10275000049305915168084B084A01A8029303911C
:102760000192FFF7D5FF039B236006B010BD00BFA9
:10277000D8100020001000E01127000801270008F1
:1027800008B5074B074A196801F00F015960136833
:102790000BB150689847BDE80840FEF7E1BD00BFA7
:1027A00000000240DC1000200000000000000000DB
:1027B000074B084819688268C1F3031110B50C0172
:1027C0005C600AB1C0689047BDE81040FEF7C8BD24
:1027D00000000240DC1000200000000000000000AB
:1027E000074B084819680269C1F3032110B50C02B0
:1027F0005C600AB140699047BDE81040FEF7B0BD8B
:1028000000000240DC10002000000000000000007A
:10281000074B084819688269C1F3033110B50C03EE
:102820005C600AB1C0699047BDE81040FEF798BDF2
:1028300000000240DC10002000000000000000004A
:10284000074B08481968026AC1F3034110B50C042C
:102850005C600AB1406A9047BDE81040FEF780BD59
:1028600000000240DC10002000000000000000001A
:10287000074B08481968826AC1F3035110B50C056B
:102880005C600AB1C06A9047BDE81040FEF768BDC1
:1028900000000240DC1000200000000000000000EA
:1028A000074B08481968026BC1F3036110B50C06A9
:1028B0005C600AB1406B9047BDE81040FEF750BD28
:1028C00000000240DC1000200000000000000000BA
:1028D00008B5074B07481968826B01F00F01596072
:1028E0000AB1C06B9047BDE80840FEF739BD00BF94
:1028F00000040240DC100020000000000000000086
:10290000074B08481968026CC1F3031110B50C019C
:102910005C600AB1406C9047BDE81040FEF720BDF6
:1029200000040240DC100020000000000000000055
:10293000074B08481968826CC1F3032110B50C02DB
:102940005C600AB1C06C9047BDE81040FEF708BD5E
:1029500000040240DC100020000000000000000025
:102960000E4B10B51968C1F3033131B10C480A039D
:10297000046D5A600CB1406DA047084B1968C1F353
:10298000034131B106480A04846D5A600CB1C06D30
:10299000A047BDE81040FEF7E3BC00BF00040240C2
:1029A000DC1000200000000000000000000000001B
:1029B00070B40C4E00252B462A460B480B490C4C94
:1029C000356001E050F80C1F0A6044F833200133F1
:1029D0000C2BF7D10749084A4FF0FF334B6070BC0E
:1029E000536070473C11002090A900080800024085
:1029F000DC10002000000240000402400000000043
:102A0000F8B51C4F467A01243D6804FA06FE1EEA1A
:102A1000050F2BD1184C4EEA050504EBC60ECEF877
:102A200004306B063D6044F8362004D0134C6369D3
:102A300043F00103636115F4786F04D00F4C6369B0
:102A400043F002036361036846681C680F2524F0A5
:102A50000F041C60077A0024BD4035601C603AB149
:102A60000901807AFEF7DCFC2046F8BD2046F8BD5F
:102A70001046F8BD3C110020DC1000200010024080
:102A800010B50446807AFEF7F3FC0C49607A0A68B8
:102A90000123834022EA03035A060B6004D108494C
:102AA0004A6922F001024A6113F4786F04D1044AA2
:102AB000536923F00203536110BD00BF3C11002095
:102AC00000100240000000000000000000000000B4
:102AD000154BF0B40021154A4FF0FF30144E1C691D
:102AE00007251861134C1961DF68D860D9605660FA
:102AF00091601560E268104842F08072E2600268FE
:102B00000E4942F001020260DA69F0BC42F08052E4
:102B1000DA61DA6942F00062DA610B6843F48073CB
:102B20000B60FFF745BF00BF0010024010E000E05F
:102B30003F190100F0ED00E0001000E000700040DF
:102B40001E4B19461A6842F001021A600B681B4AB4
:102B50009B07FBD511461368002003F0F9031360AF
:102B600050604B68154A13F00C0FFAD111461368E8
:102B700043F4803313600B68104A9803FBD5114669
:102B8000536843F4E8135360136843F08073136091
:102B90000B680A4A9B01FBD5114610B4084B094C3F
:102BA000122054601860536843F0020353604B686E
:102BB00003F00C03082BFAD110BC70470010024040
:102BC0000020024000C41D000000000000000000C2
:102BD0002DE9F0410D0704462BD5C36A056993E83A
:102BE00042000A68AD6822F00F020A60197A826A10
:102BF0000F238B400021336091603DB105230370AA
:102C0000A8472378052B04BF0223237000222261EA
:102C1000202383F31188636933B14FF0FF31626180
:102C200018465962FEF75CFD002383F31188BDE866
:102C3000F0818A0728D503691A78002A31D1C16A40
:102C40005E6891E8A0002B6823F00F032B600D7ADB
:102C50000F23816AAB403B608A60002E32D0042390
:102C60000370C2688168B0472378042B2AD02023E0
:102C700083F311886369002BD6D000226261184665
:102C80005A62FEF72DFDCFE74B0708D503695B6855
:102C90002BB1BDE8F041C268816852081847BDE811
:102CA000F0815D68002DFAD0C268012A0FD95B88D7
:102CB000520802FB03F3816801EB43012B46BDE898
:102CC000F04118470222002322702361CFE72B46F0
:102CD000BDE8F041816818470000000000000000D6
:102CE000F8B5154C42F28A552046FFF749FB134BC5
:102CF000134819468269134E2563E662002742F4A1
:102D0000007201260925A36282615F609E609D605A
:102D10008B680A4A1B07FBD41146052393608B6816
:102D2000064A13F00403FAD1054993608B6923F432
:102D300000738B61F8BD00BF4011002000240140EA
:102D40000010024090A900080000000000000000F0
:102D50000378012B00D070470C4B10B59842044605
:102D600004D0A36A00225A609A6010BD0346084A44
:102D70000521C06AFFF744FEE36A06491B68064A5C
:102D80009960936943F400739361EAE7401100206E
:102D9000D12B00084C24014000100240000000002C
:102DA0000369F0B41A78016B002A2BD1C2685D88E0
:102DB000C46A02FB05F224688668DD68E66062602A
:102DC000216026681969826A11F4841F45F48070B5
:102DD00046F001062660506014BF41F4807041F453
:102DE00081705F699E69DD691C6A40F001005B6A61
:102DF00001439160D7601661D56214635363F0BCE0
:102E000090607047C268012A94BF41F0200141F0F0
:102E10002401CCE7000000000000000000000000DA
:102E200008B50648064A436801215B6851610021E4
:102E30009847BDE80840FEF793BA00BF7411002020
:102E4000000401400000000000000000000000003D
:102E500008B50648064A43680221DB685161012132
:102E60009847BDE80840FEF77BBA00BF7411002008
:102E7000000401400000000000000000000000000D
:102E800008B50648064A436804215B69516102217E
:102E90009847BDE80840FEF763BA00BF74110020F0
:102EA00000040140000000000000000000000000DD
:102EB00008B50648064A43680821DB6951610321C9
:102EC0009847BDE80840FEF74BBA00BF74110020D8
:102ED00000040140000000000000000000000000AD
:102EE00008B50648064A436810215B6A516104210F
:102EF0009847BDE80840FEF733BA00BF74110020C0
:102F0000000401400000000000000000000000007C
:102F1000184B10B55C6904F478725A61A30622D488
:102F200060061AD4210612D4E2050AD4A30504D5FA
:102F3000114809214368DB6C9847BDE81040FEF753
:102F40000FBA0D48082143685B6C9847EEE70A48C2
:102F500007214368DB6B9847E6E70748062143688B
:102F60005B6B9847DEE7044805214368DB6A9847B6
:102F7000D6E700BF000401407411002000000000EB
:102F80001C4B10B55C6904F47C425A6162052AD47A
:102F9000230522D4E0041AD4A10412D462040AD472
:102FA000230404D514480F214368DB6F9847BDE81C
:102FB0001040FEF7D5B910480E2143685B6F984763
:102FC000EEE70D480D214368DB6E9847E6E70A48B7
:102FD0000C2143685B6E9847DEE707480B21436886
:102FE000DB6D9847D6E704480A2143685B6D984734
:102FF000CEE700BF00040140741100200000000073
:1030000008B50748074A43684FF48031D3F8843045
:10301000516110219847BDE80840FEF7A1B900BFF3
:1030200074110020000401400000000000000000B6
:1030300008B50748074A43684FF40031D3F88C308D
:10304000516111219847BDE80840FEF789B900BFDA
:103050007411002000040140000000000000000086
:1030600008B50748074A43684FF48021D3F89430E5
:10307000516112219847BDE80840FEF771B900BFC1
:103080007411002000040140000000000000000056
:1030900008B560210620FEF7C3F960210720FEF77E
:1030A000BFF960210820FEF7BBF960210920FEF777
:1030B000B7F960210A20FEF7B3F960211720FEF767
:1030C000AFF960212820FEF7ABF960210120FEF75F
:1030D000A7F960212920FEF7A3F9BDE80840602187
:1030E0002A20FEF79DB900BF00000000000000008C
:1030F0000148FFF77DB900BF7411002000000000F7
:10310000F0B4446854F8312004EBC100D30731D542
:10311000204E0123B5688B401D43B560DD431D4E35
:1031200012F0020FF26814BF1A432A40F26042689C
:1031300042B3184A10680343136053682B4053602E
:103140000F2915D821F0030303F1804354F83140CF
:1031500003F5803301F00301890098680F228A404B
:10316000C4F3031404FA01F120EA02021143996046
:10317000F0BC704701238B40DD43064FBE682E40F4
:10318000BE60CCE7034A50680343536013682B408A
:103190001360D5E7000401400000000000000000BB
:1031A000F8B503780646012B26D0154C00250127DB
:1031B00013E0CB43226801351A4022606268132D68
:1031C00002EA03026260A26802EA0302A260E26805
:1031D00003EA0203E36061610DD0736807FA05F149
:1031E00053F835305B07E4D5294630460135FFF703
:1031F00087FF132DF1D1F8BDFFF74AFFD5E700BFD8
:103200000004014000000000000000000000000079
:103210001E49F0B48B691E4A43F4FE7343F0010368
:103220008B6103681B4ED36083681B4D53604368FA
:103230001A4C1360C368A1F57841F360476902F541
:10324000A05277600769164B37608669EE60066AA0
:103250006E60C6692E60456AE560C56A6560856A0C
:103260002560046BCC60846B4C60446B0C60C16B5C
:10327000F0BCD160416C5160016C1160826CDA600D
:10328000026D5A60C26C1A60704700BF00100240A5
:1032900000080140000C01400010014000140140F2
:1032A00000200140000000000000000000000000BD
:1032B000032AF0B52CD0042A08BF416100231C4624
:1032C0001D461E46DFF84CE008271EF8022011F0CC
:1032D000800F4FEA05154FEA03134FEA06164FEA2F
:1032E00004140CBF45F00F05134311F4004F0CBF3D
:1032F00046F00F061443013F4FEA4101E7D142680F
:10330000164034434460026815402B430360F0BD0F
:103310000161D3E720AA00080000000000000000BF
:1033200030B4046B436B216800224FF400451D80CC
:103330001A809A809A820B68C26A23F00F030B608E
:10334000217A0F236468106803FA01F12160016893
:10335000546821F00F010160127A9340236030BC61
:10336000704700BF000000000000000000000000E7
:1033700038B5202383F31188C56955B10446FFF79A
:10338000CFFF00224FF0FF33E26128466B62FEF769
:10339000A7F9002383F3118838BD00BF00000000A7
:1033A00038B50B070546446B01D5FDF7A1FF2A6B25
:1033B0000F2392E82100016821F00F010160127AC9
:1033C00093402B60A3889BB243F40073A38038BD65
:1033D000F8B50B070546446B2AD4E96A0F2291E839
:1033E000C0003068202320F00F003060097A8A4046
:1033F0003A60A28822F480521204120CA280228821
:1034000022F480621204120C2280228892B242F4CA
:103410000072228083F31188EB692BB10022EA61EC
:1034200018465A62FEF75CF9002383F31188F8BD51
:10343000FDF75EFFD1E700BF0000000000000000C4
:10344000404A70B5546B4049238BA58AADB245EA1A
:10345000034323F07F438B425ED021D807398B4250
:103460004ED001318B4213D1A388D26A23F400736A
:103470001B0412681B0CA380136843F00103136044
:10348000A3889BB243F48053A3805368012B52D985
:1034900015F00A0F18BF238BBDE87040FDF760BF21
:1034A0002A498B421FD002318B42F1D1D36A1B686B
:1034B0005E68002E35D1A188202321F40071090413
:1034C000090CA180218889B241F40071218083F325
:1034D0001188D06918B14662D661FEF701F9002360
:1034E00083F31188D4E7A388126B23F400731B04C1
:1034F00012681B0CA380136843F001031360C7E735
:10350000138C1A0A0BD003F0010343F0F00302F00E
:10351000060213432382BBE7138CC3F347032382C2
:10352000B6E72388118C9BB243F4A06341F00101FC
:1035300011842380B0E7238823F480631B041B0CD1
:103540002380A5E77C11002008000300820007000B
:103550003849F8B5486B0E6B828A376892B202F42C
:103560005F4383F47F4383F0FF0383823D68CB6A2C
:1035700025F00F053D60357A77680F241E6804FA40
:1035800005F53D6035685F6825F00F0535601D7AEB
:1035900002F48073AC409BB23C60002B42D18B6044
:1035A000940544BF43F002038B6057050DD5848812
:1035B00043F0040324F400742404240C848004885D
:1035C000A4B244F4007404808B60160544BF43F039
:1035D00008038B60550444BF43F020038B60D40480
:1035E00018D543F0100310048B601FD4202383F3FD
:1035F0001188C8690F4B30B16FF00102426200229E
:10360000DA61FEF76DF8002383F31188BDE8F84016
:10361000FDF7A6BE120409D4002BE7D1BDE8F8409F
:10362000FDF79EBE012423468C60B9E743F04003BA
:103630008B60DBE77C110020000000000000000030
:1036400010B5074C2046FEF73BFF064B064900200D
:10365000A3F10C02E0616163E362226310BD00BF6D
:103660007C110020D8A90008005400400000000090
:10367000F8B503789A218A22012B044681624262BE
:10368000456B3DD02B46E16A226B0868176805F14F
:10369000100282604FF400464FF410600021BA60BF
:1036A0002E802980A8809A88606822F03F02120448
:1036B000120C4468077A9A809A883E4E92B242F081
:1036C0002402B4429A804BDD3B4A944207DC022F2D
:1036D00065D0032F56D048F6FF710B221A849983C8
:1036E00001781A88022992B246D0032941D00129D3
:1036F00032D01A802B889BB243F001032B80F8BD97
:103700002E4B9842BED12E4E00213269034642F420
:1037100000123261C06A2B4A31610A21FFF770F949
:10372000294A23460A21206BFFF76AF9F369A02191
:1037300043F40013F3611F20FDF772FEA021202047
:10374000FDF76EFE626AA36A42F4805243F480532E
:10375000A3626262636B96E722F00A0292B2C8E744
:103760001A4A610092FBF1F12522C1F30B011A8480
:10377000B5E742F00A02BCE722F0080292B242F03A
:103780000202B6E704EB8401104A01EB810192FBCF
:10379000F1F16FEA81416FEA914189B29DE70B4AED
:1037A00004EB440192FBF1F16FEA41416FEA5141B0
:1037B00089B292E7A0860100801A06007C110020E1
:1037C00000100240D1330008A13300080051250247
:1037D0000278012A0DD010B50446FFF7A1FD206B39
:1037E000FFF74EF9E06AFFF74BF9084B9C4201D016
:1037F00010BD70471F20FDF73BFE2020FDF738FE6F
:10380000034AD36923F40013D361F1E77C1100204C
:103810000010024000000000000000000000000056
:103820002DE9F04387B0109D1E466B1C80468946EB
:103830001746446B05D00346354A294601A8FDF7D3
:10384000CFFE002383F31188D8F83010D8F82C204D
:1038500009681268D8F82800C8F80830D8F8243069
:103860004FEA4909A8F820900860CF604E601360C5
:103870000E9BD3600F9B536002E0002383F31188FB
:10388000228B2023910702D4228892050BD583F343
:103890001188681CF1D0049B002BEED14FF0FF3053
:1038A00007B0BDE8F08383F3118801351DD0049B78
:1038B000002BF3D0A388174D9BB243F40073A38071
:1038C0002388AA699BB243F4807323800220C8F83E
:1038D0001C20FDF71DFF049B13B101A8FDF7A0FEFE
:1038E000AB69586A07B0BDE8F083A388094D9BB265
:1038F00043F40073A3802388AA699BB243F48073C6
:1039000023800220C8F81C20FDF702FFE8E700BF73
:10391000713300089010002000000000000000003B
:103920000B0700D47047FDF7E3BC00BF00000000A8
:103930000B0770B5044631D4616A226A91E86000D1
:1039400028680F2320F00F002860097A106803FA16
:1039500001F131600168656821F00F010160107AA2
:1039600051682A6883400B60AAB104232370204663
:1039700090472378042B0ED0202383F31188A3686B
:103980002BB10022A26018465A62FDF7A9FE00235F
:1039900083F3118870BD02232370EDE7FDF7A8FCC7
:1039A000CAE700BF000000000000000000000000A7
:1039B0004FF6FF7238B50A4C0A4B20461A80FEF7C4
:1039C00087FE41F20A0141F21802074B074D03F14D
:1039D0000C00E56123626062A162E26238BD00BF53
:1039E000B8110020B41100209CA90008003001404B
:1039F000037810B5012B04461ED0C3696268A06A23
:103A00005289E16A20F4706021F4706112F4006F51
:103A10001CBF40F4A06041F4A061A062E16242F4E6
:103A200041720020072118801A8099801A8892B26A
:103A300042F040021A8010BD0F4B984209D0216A13
:103A4000626AE3690868116803F10C0282608A60A7
:103A5000D4E70346094A0A21006AFEF7D1FF23464C
:103A6000074A0A21606AFEF7CBFF064A936943F4CE
:103A700080539361E3E700BFB8110020313900089B
:103A80002139000800100240000000000000000082
:103A900042680123118952688B405361704700BF0F
:103AA00042680123118952688B401361704700BF3F
:103AB000C26991811389DB07FCD5908980B2704778
:103AC00008B50B4B00211878DA680428116107D17A
:103AD0000220187011601161D16821F0FF01D160DE
:103AE0005B6803485B689847BDE80840FDF738BC51
:103AF000E8110020000000000000000000000000AD
:103B000008B50B4B00211878DA680428116107D139
:103B10000220187011601161D16821F0FF01D1609D
:103B20005B6803485B689847BDE80840FDF718BC30
:103B3000F81100200000000000000000000000005C
:103B400008B50B4B00211878DA680428116107D1F9
:103B50000220187011601161D16821F0FF01D1605D
:103B60005B6803485B689847BDE80840FDF7F8BB11
:103B7000081200200000000000000000000000000B
:103B800008B50A4B0A4A1846DA60FEF761FC094B91
:103B90004FF080421846DA60FEF75AFC064B074A9F
:103BA0001846DA60BDE80840FEF752BCE811002074
:103BB000002C0140F811002008120020000C0040E9
:103BC00038B503780446012B10D06268A3681168E9
:103BD000107AB3FBF1F3E268013B00219BB20824A9
:103BE000116054609362D060116138BD1C4B9842E3
:103BF00017D01C4B984226D01B4B9842E5D11B4B4B
:103C00000025DA69702142F00802DA611A6932206F
:103C100042F008021A611D61FDF702FC144BA3601B
:103C2000D3E7124B00259A69702142F400629A6131
:103C3000DA68192042F40062DA60DD60FDF7F0FB1B
:103C40000B4BA360C1E7094B0025DA69702142F0F4
:103C50000102DA611A691C2042F00102DAE700BFB2
:103C6000E8110020F8110020081200200010024086
:103C700000A24A0400000000000000000000000054
:103C8000C368002201390120D96258615A621A6161
:103C9000DA6805210243DA6019607047000000000D
:103CA000034A93899BB243F080039381704700BF1E
:103CB000003801400000000000000000000000008B
:103CC000034A93899BB243F080039381704700BFFE
:103CD0000044004000000000000000000000000060
:103CE000034A93899BB243F080039381704700BFDE
:103CF000004800400000000000000000000000003C
:103D00002DE9F041D0F8D4500646AF892C88BFB2D7
:103D1000A4B2E30544D4202383F31188A00623D55D
:103D200006F1040808E0A9883046C9B2FEF7A8FCED
:103D30002C88A4B2A00617D52207F4D014F0080FDF
:103D400014BF8021002114F0010F18BF41F02001A1
:103D5000A30748BF41F040016407404648BF41F413
:103D60008071FEF70DF8DEE7002383F31188390632
:103D700001D5220623D4630610D5202383F31188AE
:103D80001021301DFDF7FCFF002383F311884FF64F
:103D9000BF7327F0C007BFB2AF812B80BDE8F081B1
:103DA000202383F311884FF400710430FDF7E8FFFE
:103DB000002383F311884FF6FF632B80ABE72023AA
:103DC00083F3118806F13000FEF732F9002805DB95
:103DD00080B2A880002383F31188CCE70821301D2E
:103DE000FDF7CEFF27F0C00343F04003AB81F1E7BE
:103DF00008B50348FFF784FFBDE80840FDF7B0BAF7
:103E00001812002000000000000000000000000068
:103E100008B50348FFF774FFBDE80840FDF7A0BAF6
:103E2000F012002000000000000000000000000070
:103E300008B50348FFF764FFBDE80840FDF790BAF6
:103E4000C813002000000000000000000000000077
:103E500070B50E4E0E4A304600210E4DFEF7E0FBC7
:103E60000D4B28460D4A00210D4CC6F8D430FEF704
:103E7000D7FB0C4B20460C4A0021C5F8D430FEF786
:103E8000CFFB0A4BC4F8D43070BD00BF181200201D
:103E9000A13C0008F012002000380140C13C00089D
:103EA000C813002000440040E13C000800480040E6
:103EB00038B5284C037A002918BF0C46012B05465B
:103EC00021D0D5F8D430244A216893420CBF234A2C
:103ED000234AB2FBF1F292B21A81A288E0882189CA
:103EE00042F4045240F0400042F02C0241F0010143
:103EF00092B280B289B20024188299829A811C8081
:103F00001A889B8838BD174B98420FD0164B9842A1
:103F100016D0164B9842D4D1154AC021D369272018
:103F200043F48023D361FDF77BFACAE7104AC0212E
:103F30009369252043F480439361FDF771FAC0E74C
:103F40000B4AC021D369262043F40033D361FDF727
:103F500067FAB6E740AA00080038014000A24A0408
:103F60000051250218120020F0120020C813002072
:103F700000100240000000000000000000000000EF
:103F8000FEF7DEBD000000000000000000000000A1
:103F9000024A536843F01A0353607047000001401F
:103FA000F0B400F10B073C460D46B1FBF2F6B5FB51
:103FB000F2F502FB161101F13003392BC8BF01F1F4
:103FC0003703DBB204F8013D3146002DEDD13A1B39
:103FD000024401E014F8013F00F8013B9042F9D19E
:103FE000F0BC70470000000000000000000000006E
:103FF0002DE9F04F06460D46174687B00DF10C0A25
:104000000DF10D03CAEB0303019329786B1C51B129
:1040100025290BD01D463268304692689047297892
:104020006B1C0029F4D107B0BDE8F08F6A782D2A07
:1040300005BFAA7801210021AB1C2E2A009100F0B7
:104040000D81302A00F00A814FF02008591C00240D
:1040500005E03B7804372A7803EB40040131A2F1F4
:104060003003DBB2092B0D4604EB8400F3D92A2A76
:10407000EFD02E2A4FF0000132D002F0DF034C2B9C
:104080003DD0A2F14100C0B21928A2F144038CBF77
:104090004FF0000E4FF0010E342B00F2D780DFE816
:1040A00003F0C6D5D5D5D5C6D5D5D5D5D5C4D5D5A6
:1040B000D5D5D58ED5D555D5D5D5D5D5D5D5D5D577
:1040C000D5B8C6D5D5D5D5C6D5D5D5D5D5C4D5D5EC
:1040D000D590D58ED5D555003B78043703EB4001FC
:1040E00015F8012B01EB8100A2F13003DBB2092BA3
:1040F000F4D92A2AF0D002F0DF034C2BC1D1287862
:10410000002800F0A380A0F144030135342B00F215
:104110009C80DFE803F08C9A9A9A9A8C9A9A9A9AE1
:104120009A8A9A9A9A9A9A549A9A1B9A9A9A9A9AC4
:104130009A9A9A9A9A7E8C9A9A9A9A8C9A9A9A9A17
:104140009A8A9A9A9A569A549A9A1B001022396817
:104150005046FFF725FFD346CAEB0000043700F1B5
:10416000FF39009B241A24EAE474002B4DD16442E9
:104170005CB19BF800102D2900F082803368414625
:104180009B68304698470134F8D1B9F1000FFFF62B
:104190003CAF336809F1FF399B681BF8011B3046BF
:1041A0009847B9F1FF3FF4D1002C3FF42EAF3368AC
:1041B00041469B6830469847013CF8D125E70A22E2
:1041C000C5E7D7F800B03A4B0437BBF1000F08BF82
:1041D0009B469BF80030002945D0002B47D0013981
:1041E000584601E04B1C04D010F8013F0139002B68
:1041F000F8D1CBEB0000009B241A00F1FF394FF0FF
:10420000200824EAE474002BB1D0B9F1000FC0DA21
:10421000CAE73B68019A8DF80C301046043702F16A
:10422000FF394FF02008D3469BE708228FE7396813
:104230000437002931DB50460A22FFF7B1FECAEBF2
:10424000000000F1FF39D3468BE70246019BD346BD
:1042500018468DF80C2003F1FF3982E75A784FF0A9
:1042600030080133F2E647F6FE71002BB8D1009B0F
:1042700024EAE474C3B94FF0FF394FF0200876E721
:10428000B8F1300F7FF47AAF3268304692689047C9
:104290000BF1010B09F1FF3970E72D2349428DF82D
:1042A0000C300DF10D00C7E74FF020087CE700BF90
:1042B000B0AA00080000000000000000000000009C
:1042C000012970B506464EDD15682D49284614466D
:1042D00006F09EF968B965682A49284606F098F9FB
:1042E000002837D02846284906F092F9034650B3F3
:1042F00025682846254906F08BF958B96568214993
:10430000284606F085F970B128461F4906F080F965
:10431000034600B170BD1E4A3046BDE870401D49DD
:10432000137003F0B5BC1A4B01221B4930461A70BA
:1043300003F0AEFC65681449284606F069F90346A7
:104340000028E7D1E7E7154A15493046137003F016
:104350009FFCCDE7114B0122124930461A7003F041
:1043600097FC6568BEE7104903F092FC0F493046A0
:1043700003F08EFC3046BDE870400D4903F088BC68
:1043800048AB000850AB000864AB000878AB0008ED
:104390000108002094AB000880AB00080008002052
:1043A00068AB000854AB000800AB000820AB000865
:1043B00030AB00080000000000000000000000001A
:1043C000002903DD044A054903F062BC044B05499A
:1043D000DA6803F05DBC00BFA8AB0008B0AB000812
:1043E00080100020BCAB00080000000000000000AE
:1043F000002903DD214A224903F04ABC10B50446D6
:1044000082B0204A204903F043FC204A204920463C
:1044100003F03EFC1F4A2049204603F039FC1F4AA6
:104420001F49204603F034FC1E4A1F49204603F072
:104430002FFC1E4A1E49204603F02AFC1D4A1E4935
:10444000204603F025FC1D4A1D49204603F020FCB0
:104450001C4A1D4B00921D491D4A204603F018FCC2
:104460001C4A1D49204603F013FC20461B4A1C49E8
:1044700002B0BDE8104003F00BBC00BFC4AB0008A5
:10448000B0AB0008CCAB0008D4AB0008E8AB000828
:1044900030AC000844AC00084CAC000860AC00082C
:1044A0006CAC000880AC000898AC0008ACAC00080C
:1044B000D4AC0008E8AC0008F4AC000808AD000873
:1044C00010AD000848AD000810B5000830AD000878
:1044D00024AD000854AD00085CAD000870AD0008C4
:1044E00078AD00080000000000000000000000009F
:1044F000002902DD0A4903F0CBBB08B5094903F0E6
:10450000C7FB6420FDF75CFABFF34F8F0649074BEA
:10451000CA6802F4E0621343CB60BFF34F8FFEE73B
:104520008CAD00089CAD000800ED00E00400FA0529
:10453000002902DD1A4903F0ABBBF0B5194985B07B
:10454000064603F0A5FBFDF7F3FA174F04461BE000
:10455000304603F09DFB226AE3680392227F3046D7
:1045600057F8221022460291A57F1049013D01957E
:10457000A568009503F08CFB2046FDF7E9FA044698
:104580001420FDF71DFA44B1A2690949002ADFD1C0
:104590000849304603F07CFBDDE705B0F0BD00BF05
:1045A000ACAD0008C0AD0008C0AA00081CAE0008F1
:1045B00000AE000808AE0008000000000000000087
:1045C00030B5002983B004DD134903F061FB03B06B
:1045D00030BD044601A90020FDF77AFE0546FDF72F
:1045E000C7FD0E490246204603F052FB2A460C49FD
:1045F000204603F04DFB019A0A49204603F048FB90
:10460000094A0A4B0A4913445B1A20461A460949CB
:1046100003F03EFB03B030BD3CAE00084CAE0008DA
:104620006CAE000884AE000858B90000780F002076
:1046300000080020A4AE00080000000000000000F8
:1046400038B50D4698B1044628600C49204606F05E
:10465000A7F804442046202106F002F860B1421C6D
:1046600000232A600370237823B1204638BD0C68EC
:10467000002CEAD1002038BD2860F4E730A90008FA
:10468000014B1B60704700BFE014002000000000D9
:1046900000B583B00090034B0020FDF729FA03B06A
:1046A0005DF804FB814800080000000000000000E5
:1046B0002DE9F04F884607460E460D46DFF8BCA1AF
:1046C00085B0DAF80C3002F1FF390193DFF89CB1C4
:1046D00001EB0903009300243B6801225B680DF1A4
:1046E0000F0138469847002800F0A98023B2012B1B
:1046F00035D0022B9DF80F303BD01B2B37D024D860
:10470000082B7AD00D2B58D0042B49D01F2BE3D97E
:10471000009A9542E0D29BF800202B700135002AC8
:10472000DAD04E4B1B78002B40F08D80AE4208D083
:1047300016F8012B4A49384603F0AAFAB542F7D1D8
:104740002E46DAF80C300193C6E77F2B55D0C92BE3
:104750002ED0212BDAD16420FDF732F9BCE79DF889
:104760000F305B2B63D01B2B4FF00004C7D101240B
:10477000B2E7412BAFD19BF80030002B59D108EBA9
:104780000906B54267D2374B1C783CB105F8014B9E
:10479000B542A0D013F8014F002CF7D12E469BE76D
:1047A0003846314903F074FA012005B0BDE8F08FB6
:1047B0004FF4FA70FDF704F98EE72C4B00221B78BA
:1047C0002A7093B1B54204D032462949384603F0E5
:1047D0005FFA98F80030234A2BB102F8013B18F831
:1047E000013F002BF9D1002313703846214903F013
:1047F0004FFA002005B0BDE8F08F45453FF46CAF9F
:104800009BF8003043B9013D2E4665E716F8012BB1
:104810001349384603F03CFAB542F7D108231A464B
:1048200015493846013D03F033FA2E4654E7022479
:1048300052E70C4A0E49384603F02AFA9FE7012056
:1048400005B0BDE8F08FDAF80C30019A9B1A322BD4
:104850003FF66CAF75E72E4600243DE701080020C7
:10486000D8AE0008A0140020CCAE0008000800203C
:10487000A8B50008A8AD0008D0AE00088010002040
:104880002DE9F041634B06689B69634A98B0D0F804
:10489000048062499A61304603F0FAF96049304673
:1048A00003F0F6F95F4B604A6049304603F0F0F9D7
:1048B0005F4B304600935F4A5F4B604903F0E8F975
:1048C0005F49304603F0E4F9402208A93046FFF77B
:1048D000EFFE044678BB02A908A8FFF7B1FE02A9C3
:1048E0000746002003ADFFF7ABFE50B1042C1BD0F0
:1048F00045F8040B02A900200134FFF7A1FE0028AF
:10490000F4D118AB03EB840343F8540C002FD7D039
:104910004C49384605F07CFEF8B984B1494A4A4909
:10492000304603F0B5F9CBE74849304603F0B0F91B
:1049300000230793C4E73046454903F0A9F9202333
:1049400083F3118800214348FDF71AFA0020FDF790
:104950005FF8002018B0BDE8F0813F49384605F007
:1049600057FE30B9BCB13C4A3749304603F090F9A4
:10497000A6E73A4D286818B931E055F8080F70B32A
:10498000394605F045FE0028F7D16B6803AA214699
:104990003046984794E7314D3149304603F078F975
:1049A0002A682C463AB12F49304603F071F954F881
:1049B000082F002AF7D1B8F1000F0BD0D8F800204B
:1049C00042B144462749304603F062F954F8082FB3
:1049D000002AF7D12449304603F05AF970E7B8F1BC
:1049E000000F0DD0D8F8000050B1454602E055F850
:1049F000080F28B1394605F00BFE0028F7D1C4E7AF
:104A00003A461A49304603F043F91949304603F053
:104A10003FF955E790100020DCAE0008E4AE000836
:104A2000ECAE000808AD0008CCAB000808AF0008E9
:104A300048AD000824AD000810B5000820AF0008FC
:104A400034AF000860AF0008B0AB000848AF000802
:104A50003CAF0008E014002068AF00080408002004
:104A600070AF000888AF0008A8AD0008A8B500081E
:104A70008CAF0008000000000000000000000000F3
:104A80002DE9F041474B48499A69484F484B91619D
:104A900082B03F6003F5F07100221A601A75183376
:104AA0008B42FAD17820FCF78BFF01F051FC30B932
:104AB0006420FCF785FF01F04BFC0028F8D04FF490
:104AC000FA60FCF77DFF3B4B0BB105F0C1F83A4EA5
:104AD0001020FCF775FF02F033F800F0800084B27C
:104AE000002CF5D102F02CF800F0400085B2002D2A
:104AF0004DD10095314B41224FF42C713048FCF7D9
:104B00001FFF2C46054603E0FCF75AFF33783BB9FC
:104B100002F016F800F0C0039C424FF01000F3D0F2
:104B20003220FCF74DFF202383F311883B68BB4202
:104B300003D000211D48FDF723F9002383F31188DA
:104B40003220204CFCF73CFF2846FCF789FF04F597
:104B5000F07801F0D5F802E0183444450DD054F84F
:104B6000140C0028F8D02578002DF5D1FCF778FF3B
:104B7000183444F82C5C4445F1D13378002BA7D08D
:104B80003220FCF71DFF3378002BF9D1A0E7009409
:104B90000D4B41224FF42C710948FCF7D1FE402403
:104BA0000546B5E79010002060B000083C080020E2
:104BB00018190020519C0008781D0020919C0008C5
:104BC000E81400202C190020719C0008000000004F
:104BD000114B124A9B692DE9F04178209A61FCF74C
:104BE000EFFE1020FCF7ECFE00256C1CA4B2A6B270
:104BF00037B2384601F074F88046384601F0C0F804
:104C00004146024628B201F0E3FB082CB5B2ECD1D4
:104C100001F016FCE5E700BF9010002068B0000826
:104C200000231A46F0B40E461549164C8D69A8614A
:104C3000E15814488D4203F118030DD00132142AB3
:104C4000F6D100221346A1580E4F183259B1013344
:104C5000142BF8D1F0BC704702EB420200EBC20209
:104C60001675F0BC704703EB4303DB00FC18211DF5
:104C7000FD50267501220448F0BCFDF739B800BF8D
:104C800090100020181900203C08002000000000AF
:104C90000021FFF7C5BF00BF0000000000000000BA
:104CA0004FF47A7303FB00F026490138A1FB003171
:104CB00089092DE9F04101314FF0FF30FDF778F817
:104CC000214EB16910B94B7F580739D500231C46D6
:104CD0001E4DEA581D488A4203F1180307D00134DB
:104CE000142CF6D10020BDE8F041FCF7B1BE4FEA2C
:104CF000440808EB040300EBC300037D13B14B7FB2
:104D00005A071BD508EB0407FF00E91904311048C6
:104D1000FDF706F80F4B0D4A13B1D05903F0A8F870
:104D2000B3695B7F5B07DDD508EB0403DB00002282
:104D3000EA500020BDE8F041FCF78ABEBDE8F081F2
:104D4000BDE8F081D34D62109010002018190020AA
:104D50003C080020717E00080000000000000000F8
:104D600010B582B001F0C4FA01F082F901F0A8FE9A
:104D700002F0FEFF27492848FDF772FC2649002073
:104D800001F01EFD0021254B0846254A01F078FD63
:104D9000244A0121002001F073FD1E492248FDF73D
:104DA0005FFC2149012001F00BFD1C4B1C4A002136
:104DB000012001F065FD012108461C4A01F060FD5B
:104DC00000F086FCFDF774FB19491A4801F0C8FF92
:104DD000194B0BB104F034FF002400F0E1FA00F0AD
:104DE00007FD00F01DFE00F033FE00F0F1F8009426
:104DF000124B4A224FF4C0711148FCF7A1FD0094F8
:104E0000104B48224FF420710F48FCF799FD02B077
:104E100010BD00BF40B00008F012002008AD00082F
:104E200080B000088CB00008C81300209CB00008B7
:104E3000181200207C110020419C0008D14B000872
:104E400098170020814A0008F81A0020000000008E
:104E500001490248FDF704BC50B0000818120020B8
:104E600010B4202383F311880D4C09B2234600228D
:104E700004E001320C2A03F10C030CD0B3F9040056
:104E80008842F6D198680028F3DB02EB420204EB7B
:104E9000820201309060002383F3118810BC7047B8
:104EA000400800200000000000000000000000009A
:104EB0000B2808DC00EB40000B4B80001A189171A6
:104EC00011B1012908D07047B2F9042001219140A5
:104ED00018580322FEF7ECB9B2F904201858914093
:104EE0000622FEF7E5B900BF4008002000000000E0
:104EF0000B280BDC00EB4000084A8000131831B18E
:104F0000B3F90410125801238B4013617047B3F9B1
:104F10000410125801238B40536170474008002051
:104F20000B280DDC074B00EB400080001A5818449A
:104F3000B0F90400936823FA00F000F00100704714
:104F40000020704740080020000000000000000022
:104F50000B28F8B504461DDD184D460033199B009B
:104F6000EF18E8580322164BB98800F0E9F9B7F9B1
:104F70000430124A072B05D0344405EB8404002387
:104F8000A360F8BD032C15D0092C04BF4FF0FF33EC
:104F9000D362F1E746003318084D9B00EF18B7F9CC
:104FA0000420E858012100239140BB710322FEF741
:104FB0007FF9D3E74FF0FF335367DDE74008002068
:104FC000614E00080000000000000000000000002A
:104FD00038B5094C04F1900502E00C34AC420AD01B
:104FE000A368002BF9D1B4F9041004480C34FDF780
:104FF00017FAAC42F4D138BD4008002074110020EB
:105000000B2806DC044B00EB400003EB80008068BB
:1050100070470020704700BF4008002000000000DB
:105020002DE9F047002800F08780002989467FDDC0
:10503000444F00F10608454600261CE0012926D011
:105040000A292CD00C294BD00E296AD015F9063C20
:105050000136F6B215F8054C35F8020C72B203EBC6
:10506000430307EB43034A455C709970988005F150
:105070000605F6B25EDA15F8041C0029DED115F932
:10508000060CFFF715FF15F8041C0129D8D115F9F6
:10509000060CFFF70DFF15F8041C0A29D2D1C246F1
:1050A000002407E0631CDBB25AB24A450AF1060A43
:1050B000DCB211DA1AF8043C0B2BF3D135F8023CC0
:1050C0003AF8020C9842EDD1C0B21AF9062C15F943
:1050D000061C00F015FBE5E715F8041C0C29B3D1FC
:1050E000C246002407E0631CDBB25AB24A450AF10B
:1050F000060ADCB211DA1AF8043C0D2BF3D135F8AC
:10510000023C3AF8020C9842EDD1C0B21AF9062CD2
:1051100015F9061C00F044FCE5E715F8041C0E29FF
:1051200094D115F9060CFFF713FF15F8041C8DE751
:10513000BDE8F087BDE8F087024F4FF00C09384614
:1051400077E700BFD008002000000000000000004A
:105150000B2806DC044B00EB400003EB40004078DA
:1051600070470020704700BFD008002000000000FA
:105170000B283FDC4100204A0B1802EB43035B780D
:1051800000B5013B072B32D8DFE803F004070A160D
:105190002231312E19485DF804FB19485DF804FBF3
:1051A000084402EB40008078164B174A0A2814BFC7
:1051B000184610465DF804FB084402EB4000807876
:1051C000104B124A0C2814BF184610465DF804FB19
:1051D000084402EB400080780A4B0D4A0C2814BFAB
:1051E000184610465DF804FB0A485DF804FB0A48BF
:1051F0005DF804FB00207047D0080020B8B000081C
:10520000B0B00008B0B20008D0B00008C8B00008C4
:10521000C0B00008E4B00008D8B0000800000000EA
:105220000B2806DC044B00EB400003EB40008088B9
:1052300070470020704700BFD00800200000000029
:105240000B2806DC044B00EB400003EB40008078A9
:1052500070470020704700BFD00800200000000009
:1052600000285AD0002958DD38B54D1EADB205EBE7
:10527000450500EB45050C35841D25E0062B20D1A6
:1052800014F9061C14F8020C01F05AFD14F8051C60
:1052900014F8020C01F034FD34F9022C1F4914F902
:1052A000060C00F085FD34F9022C1D4914F9060C9A
:1052B00000F08EFD34F9022C1A4914F9060C00F0A6
:1052C00097FD0634AC4227D014F8051C14F9060CDF
:1052D00000F026FD14F8041C14F9060C00F040FD43
:1052E00014F8033C032BC9D134F9022C14F9060C31
:1052F0000D4900F05DFD34F9022C14F9060C0B4940
:1053000000F066FD063434F9082C14F90C0C084939
:1053100000F06EFDAC42D7D138BD7047916C0008EB
:10532000C16C0008E16C00081158000831580008F1
:1053300051580008000000000000000000000000BC
:1053400070B4114D072955F8314005EBC10604F042
:10535000F00442EA040245F83120736001D070BCC9
:1053600070470A4B984208D0094B9842F7D122F077
:10537000F00242F02002AA63F1E722F0F00242F0CC
:105380004002AA63EBE700BF1809002000180140A3
:1053900000100140000000000000000000000000BC
:1053A00001490248FDF72CB81809002074110020AB
:1053B00010B4202383F311880D4BD9685A6989688A
:1053C000B3F910409268B3F91800E140C24001F00F
:1053D000010102F0010291421A6814BF02F1FF328A
:1053E00001321A60002383F3118810BC704700BF9C
:1053F0007C1D0020000000000000000000000000F4
:1054000010B4202383F311880D4BD9685A69896839
:10541000B3F910409268B3F91800E140C24001F0BE
:10542000010102F0010291421A6814BF013202F137
:10543000FF321A60002383F3118810BC704700BF4D
:105440007C1D0020000000000000000000000000A3
:1054500010B4202383F311880D4B996A1A6B896865
:10546000B3F92C409268B3F93400E140C24001F036
:10547000010102F001029142DA6914BF02F1FF3228
:105480000132DA61002383F3118810BC704700BF3A
:105490007C1D002000000000000000000000000053
:1054A00010B4202383F311880D4B996A1A6B896815
:1054B000B3F92C409268B3F93400E140C24001F0E6
:1054C000010102F001029142DA6914BF013202F1D6
:1054D000FF32DA61002383F3118810BC704700BFEC
:1054E0007C1D002000000000000000000000000003
:1054F00010B4202383F311880D4B596CDA6C896842
:10550000B3F948409268B3F95000E140C24001F05D
:10551000010102F0010291429A6B14BF02F1FF32C5
:1055200001329A63002383F3118810BC704700BFD7
:105530007C1D0020000000000000000000000000B2
:1055400010B4202383F311880D4B596CDA6C8968F1
:10555000B3F948409268B3F95000E140C24001F00D
:10556000010102F0010291429A6B14BF013202F173
:10557000FF329A63002383F3118810BC704700BF89
:105580007C1D002000000000000000000000000062
:1055900010B4202383F311880D4B196E9A6E89681D
:1055A000B3F964409268B3F96C00E140C24001F085
:1055B000010102F0010291425A6D14BF02F1FF3263
:1055C00001325A65002383F3118810BC704700BF75
:1055D0007C1D002000000000000000000000000012
:1055E00010B4202383F311880D4B196E9A6E8968CD
:1055F000B3F964409268B3F96C00E140C24001F035
:10560000010102F0010291425A6D14BF013202F110
:10561000FF325A65002383F3118810BC704700BF26
:105620007C1D0020000000000000000000000000C1
:1056300010B4202383F311880D4BD96FD3F8842045
:105640008968B3F980409268B3F98800E140C240AC
:1056500001F0010102F0010291421A6F14BF02F140
:10566000FF3201321A67002383F3118810BC7047A0
:105670007C1D002000000000000000000000000071
:1056800010B4202383F311880D4BD96FD3F88420F5
:105690008968B3F980409268B3F98800E140C2405C
:1056A00001F0010102F0010291421A6F14BF0132B0
:1056B00002F1FF321A67002383F3118810BC704790
:1056C0007C1D002000000000000000000000000021
:1056D00010B4094C002322461946C3EBC300013322
:1056E000052B118144F8201002F11C0242F8181C0D
:1056F000F3D110BC704700BF7C1D002000000000EB
:10570000042803D80B2901DC0B2A00DD70472DE9A2
:10571000F8430D4604461646C0EBC0031F4A9B00E3
:10572000D7184FF00009284642F803904946C7F8B9
:105730000490FFF7BDFBDFF8708005EB45039B008D
:1057400008EB030258F803E09288154B70461146A7
:1057500053F82430C7F80CE0BD723A820322FFF7F9
:10576000EFFD49463046FFF7A3FB06EB46039B00DF
:1057700008EB0302B2F804E058F80350094B7146F5
:1057800053F8243028460322FE72A7F818E07D6102
:10579000FFF7D6FD01233B81BDE8F8837C1D002087
:1057A000F0B0000810B10008400800200000000020
:1057B0000B4BC0EBC00010B503EB8004B4F908300C
:1057C000012B00D010BDB4F910100648FCF728FEDC
:1057D000B4F918100348BDE81040FCF721BE00BF23
:1057E0007C1D00207411002000000000000000005B
:1057F00010B50024E0B20134FFF7DAFF052CF9D12F
:1058000010BD00BF0000000000000000000000000C
:1058100083B2042B08D8054AC0EBC0008300D1181E
:105820004868D358181A7047002070477C1D002024
:1058300083B2042B07D8044AC0EBC0008000135881
:105840001044591A416070477C1D00200000000080
:10585000042809DC064BC0EBC00003EB800090F984
:105860000A0080B200B270474FF6FF70FAE700BF3F
:105870007C1D00200000000000000000000000006F
:10588000F0B50B4E0746354683B000246A68C4EB7A
:10589000C403009256F823302246064901343846A4
:1058A00002F0F6F9052C05F11C05EFD103B0F0BDAF
:1058B0007C1D002030B10008000000000000000046
:1058C00010B4202383F31188104B11481B785B011F
:1058D000C1188A69B1F91C409268E240D2070BD422
:1058E0000C4B0D4ADB6802205B6A10704B80002372
:1058F00083F3118810BC7047064AD268526AC252BC
:10590000002383F3118810BC704700BF901F002054
:10591000941F002008120020342000200000000006
:1059200070B5202383F31188164B1978A9B101298A
:1059300003D0002383F3118870BD49F64045124A15
:1059400012491278002652018C18032018708E52CA
:105950006580002383F3118870BD0B480B4A0078E3
:1059600002EB401292F90E0001221A70FFF7C0FA02
:1059700049F640410648FCF793FD002383F3118864
:1059800070BD00BF34200020901F0020941F002015
:1059900008120020000000000000000000000000CD
:1059A000042803D80B2901DC0B2A00DD7047F8B569
:1059B0000D460446164628460121FFF779FA124F94
:1059C00005EB45039B00FA1810489288FB5800EB42
:1059D000441400213046A2822361A573FFF768FAC0
:1059E00006EB46039B00FA18B2F804E0FD58714636
:1059F000074B28460322E673A4F81CE0A561FFF7D5
:105A00009FFC0323A381F8BD40080020941F0020C1
:105A1000C158000800000000000000000000000065
:105A200038B5084C04F1A005A389DB0703D4203462
:105A3000AC42F9D138BDB4F91C100348FCF7F0FCB6
:105A4000F5E700BF941F0020741100200000000043
:105A500010B50E4C82B023680BB102B010BD0C4BD8
:105A600003F1A00101E08B42F7D09A89203392071D
:105A7000F9D5002300934822064B4FF4C071064825
:105A8000FBF75EFF206002B010BD00BF081E0020C3
:105A9000941F0020E15A0008101E002000000000A2
:105AA00008B50B4B03EB4010B0F90C30032B00D0C2
:105AB00008BD90F90E000121FFF71AFA054B0022EC
:105AC0001A700A210448BDE80840FCF7D9BC00BFA1
:105AD000941F002034200020081200200000000045
